{
  "contractName": "Auction",
  "abi": [
    {
      "constant": true,
      "inputs": [],
      "name": "x",
      "outputs": [
        {
          "name": "",
          "type": "int256"
        }
      ],
      "payable": false,
      "stateMutability": "view",
      "type": "function"
    },
    {
      "constant": true,
      "inputs": [],
      "name": "count_notary",
      "outputs": [
        {
          "name": "",
          "type": "int256"
        }
      ],
      "payable": false,
      "stateMutability": "view",
      "type": "function"
    },
    {
      "constant": true,
      "inputs": [
        {
          "name": "",
          "type": "int256"
        }
      ],
      "name": "assigned_notary",
      "outputs": [
        {
          "name": "",
          "type": "int256"
        }
      ],
      "payable": false,
      "stateMutability": "view",
      "type": "function"
    },
    {
      "constant": true,
      "inputs": [],
      "name": "auction_open",
      "outputs": [
        {
          "name": "",
          "type": "bool"
        }
      ],
      "payable": false,
      "stateMutability": "view",
      "type": "function"
    },
    {
      "constant": true,
      "inputs": [],
      "name": "item_index",
      "outputs": [
        {
          "name": "",
          "type": "uint256"
        }
      ],
      "payable": false,
      "stateMutability": "view",
      "type": "function"
    },
    {
      "constant": true,
      "inputs": [
        {
          "name": "",
          "type": "uint256"
        }
      ],
      "name": "bid_items",
      "outputs": [
        {
          "name": "",
          "type": "uint256"
        }
      ],
      "payable": false,
      "stateMutability": "view",
      "type": "function"
    },
    {
      "constant": true,
      "inputs": [],
      "name": "next_notary",
      "outputs": [
        {
          "name": "",
          "type": "int256"
        }
      ],
      "payable": false,
      "stateMutability": "view",
      "type": "function"
    },
    {
      "constant": true,
      "inputs": [
        {
          "name": "",
          "type": "int256"
        }
      ],
      "name": "notaries",
      "outputs": [
        {
          "name": "addr_notary",
          "type": "address"
        },
        {
          "name": "pay",
          "type": "int256"
        }
      ],
      "payable": false,
      "stateMutability": "view",
      "type": "function"
    },
    {
      "constant": true,
      "inputs": [],
      "name": "addr_auctioneer",
      "outputs": [
        {
          "name": "",
          "type": "address"
        }
      ],
      "payable": false,
      "stateMutability": "view",
      "type": "function"
    },
    {
      "constant": true,
      "inputs": [],
      "name": "count_winner",
      "outputs": [
        {
          "name": "",
          "type": "int256"
        }
      ],
      "payable": false,
      "stateMutability": "view",
      "type": "function"
    },
    {
      "constant": true,
      "inputs": [],
      "name": "count_bidder",
      "outputs": [
        {
          "name": "",
          "type": "int256"
        }
      ],
      "payable": false,
      "stateMutability": "view",
      "type": "function"
    },
    {
      "constant": true,
      "inputs": [
        {
          "name": "",
          "type": "int256"
        }
      ],
      "name": "winners",
      "outputs": [
        {
          "name": "",
          "type": "int256"
        }
      ],
      "payable": false,
      "stateMutability": "view",
      "type": "function"
    },
    {
      "constant": true,
      "inputs": [],
      "name": "n_bid_items",
      "outputs": [
        {
          "name": "",
          "type": "uint256"
        }
      ],
      "payable": false,
      "stateMutability": "view",
      "type": "function"
    },
    {
      "constant": true,
      "inputs": [
        {
          "name": "",
          "type": "int256"
        }
      ],
      "name": "sorted_bids",
      "outputs": [
        {
          "name": "",
          "type": "int256"
        }
      ],
      "payable": false,
      "stateMutability": "view",
      "type": "function"
    },
    {
      "constant": true,
      "inputs": [
        {
          "name": "",
          "type": "int256"
        }
      ],
      "name": "bidders",
      "outputs": [
        {
          "name": "addr_bidder",
          "type": "address"
        },
        {
          "name": "n_items",
          "type": "uint256"
        },
        {
          "name": "u_w",
          "type": "int256"
        },
        {
          "name": "v_w",
          "type": "int256"
        },
        {
          "name": "index",
          "type": "uint256"
        }
      ],
      "payable": false,
      "stateMutability": "view",
      "type": "function"
    },
    {
      "constant": true,
      "inputs": [],
      "name": "q",
      "outputs": [
        {
          "name": "",
          "type": "int256"
        }
      ],
      "payable": false,
      "stateMutability": "view",
      "type": "function"
    },
    {
      "inputs": [
        {
          "name": "prime",
          "type": "int256"
        },
        {
          "name": "n",
          "type": "uint256"
        }
      ],
      "payable": false,
      "stateMutability": "nonpayable",
      "type": "constructor"
    },
    {
      "constant": false,
      "inputs": [],
      "name": "register_notary",
      "outputs": [],
      "payable": false,
      "stateMutability": "nonpayable",
      "type": "function"
    },
    {
      "constant": false,
      "inputs": [
        {
          "name": "u_w",
          "type": "int256"
        },
        {
          "name": "v_w",
          "type": "int256"
        },
        {
          "name": "n_items",
          "type": "uint256"
        }
      ],
      "name": "register_bidder",
      "outputs": [],
      "payable": false,
      "stateMutability": "nonpayable",
      "type": "function"
    },
    {
      "constant": false,
      "inputs": [
        {
          "name": "item_id",
          "type": "uint256"
        }
      ],
      "name": "add_auction_items",
      "outputs": [],
      "payable": false,
      "stateMutability": "nonpayable",
      "type": "function"
    },
    {
      "constant": false,
      "inputs": [
        {
          "name": "addr",
          "type": "address"
        }
      ],
      "name": "getBidderId",
      "outputs": [
        {
          "name": "id",
          "type": "int256"
        }
      ],
      "payable": false,
      "stateMutability": "nonpayable",
      "type": "function"
    },
    {
      "constant": false,
      "inputs": [
        {
          "name": "u",
          "type": "int256"
        },
        {
          "name": "v",
          "type": "int256"
        }
      ],
      "name": "add_bid_items",
      "outputs": [],
      "payable": false,
      "stateMutability": "nonpayable",
      "type": "function"
    },
    {
      "constant": false,
      "inputs": [
        {
          "name": "id1",
          "type": "int256"
        },
        {
          "name": "id2",
          "type": "int256"
        },
        {
          "name": "u1",
          "type": "int256"
        },
        {
          "name": "u2",
          "type": "int256"
        },
        {
          "name": "v1",
          "type": "int256"
        },
        {
          "name": "v2",
          "type": "int256"
        }
      ],
      "name": "isEqual",
      "outputs": [
        {
          "name": "result",
          "type": "int256"
        }
      ],
      "payable": false,
      "stateMutability": "nonpayable",
      "type": "function"
    },
    {
      "constant": false,
      "inputs": [
        {
          "name": "x",
          "type": "int256"
        },
        {
          "name": "y",
          "type": "int256"
        }
      ],
      "name": "isLarger",
      "outputs": [
        {
          "name": "result",
          "type": "int256"
        }
      ],
      "payable": false,
      "stateMutability": "nonpayable",
      "type": "function"
    },
    {
      "constant": false,
      "inputs": [],
      "name": "sort",
      "outputs": [],
      "payable": false,
      "stateMutability": "nonpayable",
      "type": "function"
    },
    {
      "constant": false,
      "inputs": [
        {
          "name": "id1",
          "type": "int256"
        },
        {
          "name": "id2",
          "type": "int256"
        }
      ],
      "name": "unique_items",
      "outputs": [
        {
          "name": "result",
          "type": "bool"
        }
      ],
      "payable": false,
      "stateMutability": "nonpayable",
      "type": "function"
    },
    {
      "constant": false,
      "inputs": [
        {
          "name": "id",
          "type": "int256"
        }
      ],
      "name": "compare_bidders",
      "outputs": [
        {
          "name": "result",
          "type": "bool"
        }
      ],
      "payable": false,
      "stateMutability": "nonpayable",
      "type": "function"
    },
    {
      "constant": false,
      "inputs": [],
      "name": "announce_winners",
      "outputs": [],
      "payable": false,
      "stateMutability": "nonpayable",
      "type": "function"
    },
    {
      "constant": false,
      "inputs": [
        {
          "name": "id",
          "type": "int256"
        }
      ],
      "name": "test",
      "outputs": [],
      "payable": false,
      "stateMutability": "nonpayable",
      "type": "function"
    }
  ],
  "bytecode": "0x608060405234801561001057600080fd5b506040516040806114ee8339810180604052810190808051906020019092919080519060200190929190505050336000806101000a81548173ffffffffffffffffffffffffffffffffffffffff021916908373ffffffffffffffffffffffffffffffffffffffff160217905550600060018190555081600281905550806003819055506000600960006101000a81548160ff0219169083151502179055506000600681905550600060058190555060006007819055506000600881905550505061140f806100df6000396000f30060806040526004361061016a576000357c0100000000000000000000000000000000000000000000000000000000900463ffffffff1680630a20b3661461016f5780630c55699c146101e257806313702f081461020d5780631b74b974146102385780632b3abd37146102795780632c3d4c89146102d0578063350d93f3146102ff5780635c893b1e14610340578063651989ae1461038f578063695f7f41146103ba57806370b81fe614610405578063803b4805146104465780638c7e5778146104735780638cdc86a6146104b857806395b5ea78146104cf5780639b22c05d146104fa5780639d34be88146105275780639f408a231461053e578063a05655e6146105b2578063a7c2955214610609578063b373ab0414610640578063c2bd6f3b1461066b578063e396923014610696578063ec9a31b0146106ad578063f65afb25146106ee578063fa8daead14610719578063fcdbfe661461075a578063fd3ab282146107e3575b600080fd5b34801561017b57600080fd5b506101cc60048036038101908080359060200190929190803590602001909291908035906020019092919080359060200190929190803590602001909291908035906020019092919050505061080e565b6040518082815260200191505060405180910390f35b3480156101ee57600080fd5b506101f76108ae565b6040518082815260200191505060405180910390f35b34801561021957600080fd5b506102226108b4565b6040518082815260200191505060405180910390f35b34801561024457600080fd5b50610263600480360381019080803590602001909291905050506108ba565b6040518082815260200191505060405180910390f35b34801561028557600080fd5b506102ba600480360381019080803573ffffffffffffffffffffffffffffffffffffffff1690602001909291905050506108d2565b6040518082815260200191505060405180910390f35b3480156102dc57600080fd5b506102e561098d565b604051808215151515815260200191505060405180910390f35b34801561030b57600080fd5b5061033e6004803603810190808035906020019092919080359060200190929190803590602001909291905050506109a0565b005b34801561034c57600080fd5b506103756004803603810190808035906020019092919080359060200190929190505050610b5c565b604051808215151515815260200191505060405180910390f35b34801561039b57600080fd5b506103a4610d7a565b6040518082815260200191505060405180910390f35b3480156103c657600080fd5b506103ef6004803603810190808035906020019092919080359060200190929190505050610d80565b6040518082815260200191505060405180910390f35b34801561041157600080fd5b5061043060048036038101908080359060200190929190505050610e52565b6040518082815260200191505060405180910390f35b34801561045257600080fd5b5061047160048036038101908080359060200190929190505050610e6a565b005b34801561047f57600080fd5b5061049e60048036038101908080359060200190929190505050610ec8565b604051808215151515815260200191505060405180910390f35b3480156104c457600080fd5b506104cd610f1e565b005b3480156104db57600080fd5b506104e4611081565b6040518082815260200191505060405180910390f35b34801561050657600080fd5b5061052560048036038101908080359060200190929190505050611087565b005b34801561053357600080fd5b5061053c61108a565b005b34801561054a57600080fd5b50610569600480360381019080803590602001909291905050506110f5565b604051808373ffffffffffffffffffffffffffffffffffffffff1673ffffffffffffffffffffffffffffffffffffffff1681526020018281526020019250505060405180910390f35b3480156105be57600080fd5b506105c7611139565b604051808273ffffffffffffffffffffffffffffffffffffffff1673ffffffffffffffffffffffffffffffffffffffff16815260200191505060405180910390f35b34801561061557600080fd5b5061063e600480360381019080803590602001909291908035906020019092919050505061115e565b005b34801561064c57600080fd5b50610655611271565b6040518082815260200191505060405180910390f35b34801561067757600080fd5b50610680611277565b6040518082815260200191505060405180910390f35b3480156106a257600080fd5b506106ab61127d565b005b3480156106b957600080fd5b506106d8600480360381019080803590602001909291905050506112ec565b6040518082815260200191505060405180910390f35b3480156106fa57600080fd5b50610703611304565b6040518082815260200191505060405180910390f35b34801561072557600080fd5b506107446004803603810190808035906020019092919050505061130a565b6040518082815260200191505060405180910390f35b34801561076657600080fd5b5061078560048036038101908080359060200190929190505050611322565b604051808673ffffffffffffffffffffffffffffffffffffffff1673ffffffffffffffffffffffffffffffffffffffff1681526020018581526020018481526020018381526020018281526020019550505050505060405180910390f35b3480156107ef57600080fd5b506107f8611378565b6040518082815260200191505060405180910390f35b6000806000600f60008a815260200190815260200160002060010160008154809291906001019190505550600f600089815260200190815260200160002060010160008154809291906001019190505550858703915083850390506000818301141561087d57600092506108a2565b6002805481151561088a57fe5b05818301121561089d57600192506108a2565b600292505b50509695505050505050565b600a5481565b60055481565b600d6020528060005260406000206000915090505481565b600080600090505b600654811215610963578273ffffffffffffffffffffffffffffffffffffffff16600c600083815260200190815260200160002060000160009054906101000a900473ffffffffffffffffffffffffffffffffffffffff1673ffffffffffffffffffffffffffffffffffffffff16141561095657809150610987565b80806001019150506108da565b7fffffffffffffffffffffffffffffffffffffffffffffffffffffffffffffffff91505b50919050565b600960009054906101000a900460ff1681565b60008090505b600654811215610a2c573373ffffffffffffffffffffffffffffffffffffffff16600c600083815260200190815260200160002060000160009054906101000a900473ffffffffffffffffffffffffffffffffffffffff1673ffffffffffffffffffffffffffffffffffffffff161415610a1f57610b56565b80806001019150506109a6565b33600c6000600654815260200190815260200160002060000160006101000a81548173ffffffffffffffffffffffffffffffffffffffff021916908373ffffffffffffffffffffffffffffffffffffffff16021790555083600c600060065481526020019081526020016000206002018190555082600c600060065481526020019081526020016000206003018190555081600c60006006548152602001908152602001600020600101819055506000600c600060065481526020019081526020016000206004018190555060065460055412158015610b0f5750600554600854125b15610b5557600654600d60006008548152602001908152602001600020819055506008600081548092919060010191905055506006600081548092919060010191905055505b5b50505050565b60008060008060008060008060009650600095505b600c6000600d60008d815260200190815260200160002054815260200190815260200160002060010154861015610d6857600c6000600d60008d815260200190815260200160002054815260200190815260200160002060050186815481101515610bd857fe5b90600052602060002090600202016000600281101515610bf457fe5b01549450600c6000600d60008d815260200190815260200160002054815260200190815260200160002060050186815481101515610c2e57fe5b90600052602060002090600202016001600281101515610c4a57fe5b01549350600092505b600c60008a815260200190815260200160002060010154831015610d4957600c6000600d60008c815260200190815260200160002054815260200190815260200160002060050183815481101515610ca757fe5b90600052602060002090600202016000600281101515610cc357fe5b01549150600c6000600d60008c815260200190815260200160002054815260200190815260200160002060050183815481101515610cfd57fe5b90600052602060002090600202016001600281101515610d1957fe5b015490506000610d2d8b8b8886898761080e565b1415610d3c5760019650610d49565b8280600101935050610c53565b6001871415610d5b5760009750610d6d565b8580600101965050610b71565b600197505b5050505050505092915050565b60045481565b6000806000806000600c6000600d60008a8152602001908152602001600020548152602001908152602001600020600201549350600c6000600d60008a8152602001908152602001600020548152602001908152602001600020600301549250600c6000600d6000898152602001908152602001600020548152602001908152602001600020600201549150600c6000600d6000898152602001908152602001600020548152602001908152602001600020600301549050610e4687878685878661080e565b94505050505092915050565b600e6020528060005260406000206000915090505481565b6003546004541015610e9d5780600e60006004548152602001908152602001600020819055506001600454016004819055505b6003546004541415610ec5576001600960006101000a81548160ff0219169083151502179055505b50565b600080600090505b600754811215610f1357610ef783600b600084815260200190815260200160002054610b5c565b1515610f065760009150610f18565b8080600101915050610ed0565b600191505b50919050565b600080600080600093505b600854841215610f58578360106000868152602001908152602001600020819055508380600101945050610f29565b600092505b600160085403831215611032578291506001830190505b600854811215610fc7576002610fb060106000858152602001908152602001600020546010600085815260200190815260200160002054610d80565b1415610fba578091505b8080600101915050610f74565b601060008381526020019081526020016000205460106000858152602001908152602001600020546010600086815260200190815260200160002060006010600087815260200190815260200160002060008491905055839190505550508280600101935050610f5d565b6000600654131561107b576010600080815260200190815260200160002054600b6000808152602001908152602001600020819055506007600081548092919060010191905055505b50505050565b60085481565b50565b33600f6000600554815260200190815260200160002060000160006101000a81548173ffffffffffffffffffffffffffffffffffffffff021916908373ffffffffffffffffffffffffffffffffffffffff160217905550600560008154809291906001019190505550565b600f6020528060005260406000206000915090508060000160009054906101000a900473ffffffffffffffffffffffffffffffffffffffff16908060010154905082565b6000809054906101000a900473ffffffffffffffffffffffffffffffffffffffff1681565b6000600960009054906101000a900460ff161561126c5761117e336108d2565b90507fffffffffffffffffffffffffffffffffffffffffffffffffffffffffffffffff8114151561126b57600c600082815260200190815260200160002060010154600c600083815260200190815260200160002060040154101561126a57600c60008281526020019081526020016000206005016040805190810160405280858152602001848152509080600181540180825580915050906001820390600052602060002090600202016000909192909190915090600261124192919061137e565b5050600c6000828152602001908152602001600020600401600081548092919060010191905055505b5b5b505050565b60075481565b60065481565b6000600190505b6008548112156112e9576112aa6010600083815260200190815260200160002054610ec8565b156112dc5780600b60006007548152602001908152602001600020819055506007600081548092919060010191905055505b8080600101915050611284565b50565b600b6020528060005260406000206000915090505481565b60035481565b60106020528060005260406000206000915090505481565b600c6020528060005260406000206000915090508060000160009054906101000a900473ffffffffffffffffffffffffffffffffffffffff16908060010154908060020154908060030154908060040154905085565b60025481565b82600281019282156113ad579160200282015b828111156113ac578251825591602001919060010190611391565b5b5090506113ba91906113be565b5090565b6113e091905b808211156113dc5760008160009055506001016113c4565b5090565b905600a165627a7a72305820b6defbe4f4a531aee15ea98756b94138d19a763cb10b5d680a03586936548a030029",
  "source": "pragma solidity ^0.4.24;\ncontract Auction{\n    address public addr_auctioneer;\n    uint256 payment;\n    int256 public q;   //large prime\n    uint256 public n_bid_items;\n    uint256 public item_index;\n    int256 public count_notary;\n    int256 public count_bidder;\n    int256 public count_winner;\n    int256 public next_notary;\n    bool public auction_open;\n    int256 public x;\n    \n    struct bidder{\n        address addr_bidder;\n        uint256 n_items;\n        int256 u_w;\n        int256 v_w;\n        uint index;\n        int256[2][] items;\n    }\n    \n    struct notary{\n        address addr_notary;\n        int256 pay;\n    }\n    mapping(int256 => int256) public winners;\n    mapping(int256 => bidder) public bidders;\n    mapping(int256 => int256) public assigned_notary;  //notary-bidder assignment\n    mapping(uint256 => uint256) public bid_items;      //items for auction\n    mapping(int256 => notary) public notaries;\n    mapping(int256 => int256) public sorted_bids;\n    \n    /*************************************************************************************************/\n    \n    //constructor\n    function Auction(int256 prime, uint256 n)\n    {\n        addr_auctioneer=msg.sender;\n        payment=0;\n        q=prime;\n        n_bid_items=n;\n        auction_open=false;\n        count_bidder = 0;\n        count_notary=0;\n        count_winner=0;\n        next_notary=0;\n    }\n    //function to register notary\n     function register_notary()\n    {\n        notaries[count_notary].addr_notary=msg.sender;\n        count_notary++;\n    }\n    //function that registers bidder\n    function register_bidder(int256 u_w,int256 v_w,uint n_items)\n    {\n        for(int i=0;i<count_bidder;i++)\n        {\n            if(bidders[i].addr_bidder==msg.sender)\n                return;\n        }\n        bidders[count_bidder].addr_bidder=msg.sender;\n        bidders[count_bidder].u_w=u_w;\n        bidders[count_bidder].v_w=v_w;\n        bidders[count_bidder].n_items=n_items;\n        bidders[count_bidder].index=0;\n        //assign notary to this bidder\n        if(count_notary>=count_bidder&&next_notary<count_notary)\n        {\n          assigned_notary[next_notary]=count_bidder;\n          next_notary++;\n          count_bidder++;\n        }\n       \n    }\n    //adding items to the main item list which are open for auction. \n    //Also making a check so that the current index does not exceed the total item count. \n    function add_auction_items(uint256 item_id)\n    {\n           if(item_index<n_bid_items)\n            {\n                bid_items[item_index]=item_id;\n                item_index=item_index+1;\n            }\n            if(item_index==n_bid_items)\n            {\n                auction_open = true;\n            }\n        \n    }\n    //functions that registers notary\n   \n    function getBidderId(address addr) public returns (int256 id)\n    {\n        for(int i=0;i<count_bidder;i++)\n        {\n            if(bidders[i].addr_bidder==addr)\n                return i;\n        }\n        return -1;\n    }\n    //function to add items that the bidder wants to bid on \n    function add_bid_items(int256 u,int256 v)\n    {\n        if(auction_open)\n        {\n            int256 id=getBidderId(msg.sender);\n            if(id!=-1)\n            {\n                if(bidders[id].index<bidders[id].n_items)\n                {\n                    bidders[id].items.push([u,v]);\n                    bidders[id].index++;\n                }\n            }\n        }\n        \n    }\n    \n    //procedure1 called by auctioneer\n    //parameters: notary id1,notary id2,value u1,value u2,value v1,value v2\n    function isEqual(int256 id1,int256 id2,int256 u1,int256 u2,int256 v1,int256 v2) public returns(int256 result) \n    {\n        notaries[id1].pay++;\n        notaries[id2].pay++;\n        int256 val1=u1-u2;\n        int256 val2=v1-v2;\n        if(val1+val2==0)return 0;\n        else if(val1+val2<(q/2))return 1;\n        return 2;\n        \n    }\n    //\n    function isLarger(int256 x, int256 y) public returns(int256 result)\n    {\n        int256 u1=bidders[assigned_notary[x]].u_w;\n        int256 v1=bidders[assigned_notary[x]].v_w;\n        int256 u2=bidders[assigned_notary[y]].u_w;\n        int256 v2=bidders[assigned_notary[y]].v_w;\n        return isEqual(x,y,u1,u2,v1,v2);\n    }\n    function sort()\n    {\n        for(int256 k=0;k<next_notary;k++)\n        {\n            sorted_bids[k]=k;\n        }\n        for(int256 i=0;i<next_notary-1;i++)\n        {\n            int256 max=i;\n            for(int256 j=i+1;j<next_notary;j++)\n            {\n                 if(isLarger(sorted_bids[max],sorted_bids[j]) == 2)\n                    max=j;\n            }\n             (sorted_bids[i],sorted_bids[max])=(sorted_bids[max],sorted_bids[i]);\n        }\n        if(count_bidder>0)\n        {\n            winners[0] = sorted_bids[0];\n            count_winner++;\n        }\n    }\n    //parameters: notray id1,notary id2\n    function unique_items(int256 id1,int256 id2) public returns(bool result)\n    {\n        int256 flag = 0;\n        for(uint256 i = 0; i <bidders[assigned_notary[id1]].n_items; i++)//for every item of bidder1\n        {\n            int256 u1=bidders[assigned_notary[id1]].items[i][0];\n            int256 v1=bidders[assigned_notary[id1]].items[i][1];\n            for(uint256 j=0;j<bidders[id2].n_items;j++)//for every item of bidder2\n            {\n                int256 u2=bidders[assigned_notary[id2]].items[j][0];\n                int256 v2=bidders[assigned_notary[id2]].items[j][1];\n                if(isEqual(id1,id2,u1,u2,v1,v2)==0)\n                {\n                    flag=1;\n                    break;\n                }\n                \n            }\n            if(flag==1)\n                return false;\n        }\n        return true;\n    }\n    //parameters: notary id\n    function compare_bidders(int256 id) public returns(bool result)\n    {\n        for(int i=0;i<count_winner;i++)\n        {\n            if(!unique_items(id,winners[i]))\n                return false;\n        }\n        return true;\n    }\n    function announce_winners()\n    {\n        for(int i=1;i<next_notary;i++)\n        {\n            if(compare_bidders(sorted_bids[i]))\n            {\n                winners[count_winner]=i;\n                count_winner++;\n            }\n        }\n    }\n    \n    //only for testing purpose\n    function test(int256 id) \n    {\n       \n    }\n}\n\n",
  "sourcePath": "/home/sahil/block/contracts/Auction.sol",
  "compiler": {
    "name": "solc",
    "version": "0.4.24+commit.e67f0147.Emscripten.clang"
  },
  "schemaVersion": "2.0.1",
  "updatedAt": "2018-09-23T21:49:14.527Z"
}